:020000040800F2
:1000000080020020B1030008B5030008B703000810
:10001000B9030008BB030008BD030008000000008E
:10002000000000000000000000000000BF03000806
:10003000C103000800000000C3030008C503000856
:10004000C7030008C7030008C7030008C703000868
:10005000C7030008C7030008C7030008C703000858
:10006000C7030008C7030008C7030008C703000848
:10007000C7030008C7030008C7030008C703000838
:10008000C7030008C7030008C7030008C703000828
:10009000C7030008C7030008C7030008C703000818
:1000A000C7030008C7030008C7030008C703000808
:1000B000C7030008C7030008C7030008C7030008F8
:1000C000C7030008C7030008C7030008C7030008E8
:1000D000C7030008C7030008C7030008C7030008D8
:1000E000C7030008C7030008C703000800F002F8B0
:1000F00000F03AF80AA090E8000C82448344AAF188
:100100000107DA4501D100F02FF8AFF2090EBAE885
:100110000F0013F0010F18BFFB1A43F0010318473B
:100120006024000080240000103A24BF78C878C101
:10013000FAD8520724BF30C830C144BF04680C60ED
:10014000704700000023002400250026103A28BF35
:1001500078C1FBD8520728BF30C148BF0B60704739
:100160001FB51FBD10B510BD00F05CFF1146FFF7B5
:10017000F7FF00F00BF800F07AFF03B4FFF7F2FF8F
:1001800003BC00F0C5FE000030BF000000270024C3
:1001900000260125062000F060FE482000F0F2FC59
:1001A00000F0F4FA00F030FC00207C49086000F018
:1001B0009AFB07460E2000F004FC0446EDE0701C9C
:1001C000C6B2322E07DD00F08EFB07460E2000F08F
:1001D000F8FB044600267249384601F08FFE81463E
:1001E00001F04EFF00F0FF084146002000F06EFCD9
:1001F000012000F0E3FC384601F042FFC0B20A21C2
:1002000090FBF1F201FB120000F0FF0841460120D3
:1002100000F080FC012000F0D1FC6149384601F07B
:1002200097FF814601F02CFFC0B20A2190FBF1F24A
:1002300001FB120000F0FF084146022000F046FCDE
:10024000012000F0BBFC5749384601F081FF814690
:1002500001F016FFC0B20A2190FBF1F201FB12007F
:1002600000F0FF084146032000F030FC012000F0C0
:10027000A5FC4FF47A7094FBF0F000F0FF084146C3
:10028000042000F023FC012000F098FC4FF47A7069
:1002900094FBF0F100FB1140642190FBF1F000F0C1
:1002A000FF084146052000F011FC012000F086FC0B
:1002B000642094FBF0F100FB11400A2190FBF1F067
:1002C00000F0FF084146062000F000FC012000F08D
:1002D00075FC0A2094FBF0F100FB114000F0FF08D0
:1002E0004146072000F0F2FB012000F067FC21E00E
:1002F00001202A49086000F0F6FA07460E2000F0B7
:1003000060FB04462848006840EA0520264908604A
:100310004FF4967000F052FC6806050E55B922485D
:10032000006820F47F40204908604FF4967000F088
:1003300045FC01251D49384601F0D6FFD8D31E2CB7
:10034000D6DB00201549086022E000201349086030
:100350000E2000F036FB04460A21042000F0B6FB14
:10036000012000F02BFC0421052000F0AFFB012050
:1003700000F024FC0221062000F0A8FB012000F080
:100380001DFC0221072000F0A1FB012000F016FC5B
:10039000962CDADC00200149086010E78C812142AC
:1003A000000020410000C8420C1801400000F0414C
:1003B00008480047FEE7FEE7FEE7FEE7FEE7FEE748
:1003C000FEE7FEE7FEE7FEE703480449024A044B66
:1003D00070470000ED00000880000020800200202F
:1003E00080000020FE48806940F48060FC498861FC
:1003F0000846C06840F48060C8600846C06820F4C1
:100400008060C860F7480068F7490840F54908600F
:100410000846006808600846006820F4807008609C
:10042000081D006820F00200091D086008460068E9
:1004300020F4602008600846006840F460200860EE
:100440000846006840F4801008600846006820F400
:1004500000600860E3482830006820F47000E1493B
:10046000283108600846006800200860DD480C302C
:10047000006820F03800DB490C310860084600684D
:1004800040F038000860D748001D006840F00100C7
:10049000D449091D08600846006840F0080008605B
:1004A00000BFD048001D006800F008000028F8D107
:1004B000CC48001D006840F00400CA49091D0860CE
:1004C00000BFC848001D006800F004000028F8D1F3
:1004D0007047C348806940F40070C149886108468C
:1004E000C06840F40070C8600846C06820F400701E
:1004F000C860BE480068BC490840BC49086008465E
:10050000006808600846006820F480700860081DD4
:10051000006820F00200091D08600846006820F409
:10052000602008600846006840F4602008600846C3
:10053000006840F4801008600846006820F40060FD
:100540000860AA482830006820F47000A7492831C4
:1005500008600846006800200860A4480C30006865
:1005600020F00F00A1490C3108600846006840F0F7
:10057000070008609D48001D006840F001009B498D
:10058000091D08600846006840F00800086000BFC8
:100590009648001D006800F008000028F8D1934834
:1005A000001D006840F004009049091D086000BF6C
:1005B0008E48001D006800F004000028F8D1704744
:1005C00000B58748806940F0040085498861884803
:1005D000006820F0FF00864908608148406820F4E8
:1005E00040407F4948600846406840F40040486009
:1005F000FFF76FFFFFF7F6FE00BD10B502460020C3
:10060000012A20D1794B30331B6823F01F03774C2C
:100610003034236023461B680B432360734B1B1D40
:100620001B6843F48003714C241D236000BF6F4B93
:100630001B1F1B6803F00203002BF8D06B4B4833E1
:100640001B6898B221E0022A1FD1664B30331B6829
:1006500023F01F03634C3034236023461B680B4395
:100660002360604B1B1D1B6843F480035D4C241DFD
:10067000236000BF5B4B1B1F1B6803F00203002BB2
:10068000F8D0584B48331B6898B210BD2DE9FE4F87
:1006900082468B4600200290019059465046FFF753
:1006A000ACFF0290029801F00BFD009001F08CFB72
:1006B00080464FF066324F4B01F092F90646002219
:1006C0004D4B00F0E1FF044600F0F0FE0190019870
:1006D000BDE8FE8F2DE9F04704460D46284601F09F
:1006E000CFFCC0B20A2190FBF1F201FB1200C6B2AE
:1006F0004249284601F02CFD814601F0C1FCC0B200
:100700000A2190FBF1F201FB1200C7B23C492846D6
:1007100001F01EFD814601F0B3FCC0B20A2190FB3E
:10072000F1F201FB120000F0FF08012C15D1314657
:10073000002000F0EFF9012000F040FA39460120D6
:1007400000F0C4F9012000F039FA4146022000F01F
:10075000BDF9012000F032FA16E0022C14D1314626
:10076000052000F0D7F9012000F028FA39460620CC
:1007700000F0ACF9012000F021FA4146072000F01A
:10078000A5F9012000F01AFABDE8F0871448806945
:1007900040F01000124988611548006820F47F007D
:1007A000134908600E48406820F440400C494860F6
:1007B0000846406840F4004048600846806940F4BC
:1007C000007088610846C06840F40070C860084640
:1007D000C06820F40070C86004480068024911E055
:1007E0000010024004280140FFFFF00004240140F3
:1007F0000008014066660A400000B0400000204149
:100800000000C84208407449086008460068086053
:100810000846006820F480700860081D006820F019
:100820000200091D08600846006820F46020086086
:100830000846006840F4602008600846006840F4FC
:10084000801008600846006820F400600860624874
:100850002830006820F470005F492831086008469D
:100860000068002008605C480830006820F47C3094
:100870005949083108600846006840F4E0400860C3
:100880000846006840F460300860081F006840F0C7
:100890000100091F08600846006840F00800086071
:1008A00000BF4D48001D006800F008000028F8D186
:1008B0004948001D006840F004004749091D0860D0
:1008C00000BF4548001D006800F004000028F8D172
:1008D000704730B50446002521460120FFF78DFE04
:1008E0000546284630BD2DE9F04F8DB000200B9015
:1008F0000A900F20FFF7EDFF0B900B9801F0E0FB43
:10090000804601F061FA06464FF06632334B01F043
:1009100067F8044600F0CAFD0A900A9801F054FAFC
:1009200080464FF066322E4B01F058F9CDE90801B0
:100930002C490A9801F00CFC804601F045FA064665
:10094000DDE9082300F0A0FE82460022264B00F0DD
:100950009BFE044600F0AAFD0A9024490A9801F083
:10096000F7FB2049019001F0C9FA834601F02CFA07
:10097000CDE9020100F0ECFBCDE9040100F096FDA9
:100980001B49079001F0BAFA824601F01DFA0646AB
:10099000184A194B00F0BCFD044622460B460020C5
:1009A000164900F071FE164A164BCDE9080101F018
:1009B00021F9804600F07AFD0A900A980DB0BDE852
:1009C000F08F30B50446002521460120FFF715FEC3
:1009D0000546284630BD00000424014066664A3FB3
:1009E00066660A4000401C4600408F4000007A4482
:1009F00000E07645649E2278A5796B3F0000F03FC9
:100A0000C3F5285C8F1271405448806940F00100A2
:100A1000524988610846806940F0080088610846AC
:100A2000806940F0400088614D48406840F00070A7
:100A30004B4948604B4800686FF30F004949086014
:100A40000846006843F23331084346490860454888
:100A50000C30006840F0FF0042490C310860424809
:100A600000680020404908600846006840F03330C4
:100A700008603D480830006840F47F403A4908313A
:100A80000860704700F00101384A1160C0F340016E
:100A9000374AC2F8A411C0F38001344A0832116009
:100AA000C0F3C001121D1160C0F30011121D1160CE
:100AB000C0F34011121D1160C0F38011121D1160AE
:100AC000C0F3C0112A4AC2F8BC11704730B50346C2
:100AD0000C46184603EBD0714910A3EB4101254A9F
:100AE0001160194603EBD172501000EBD072521016
:100AF000A0EB4202204DC5F884211846D91703EB1C
:100B0000917189101B4A083211601C49085DFFF77A
:100B1000B9FF30BD30B503460C46184603EBD07123
:100B20004910A3EB4101134A1160194603EBD1723E
:100B3000501000EBD0725210A0EB42020E4DC5F8DF
:100B400084211846D91703EB91718910094A08329C
:100B500011600B49085DFFF795FF30BD00100240A2
:100B600000000140000C014004180140A001234294
:100B700000002342808121420080214200000020A9
:100B80000B0000204FF0E021096921F004014FF033
:100B9000E0221161C21700EB5272C2F3C702234B6D
:100BA0001A701946097801EB4102C2EBC1114FF6E8
:100BB000FF7202EAC1011E4A1180704701461C4AB9
:100BC00012884A434FF0E0235A6100229A610122C1
:100BD0001A6100BF4FF0E022106900F001021AB163
:100BE00000F48032002AF5D000224FF0E0231A6191
:100BF0009A61704701460D4A12784A434FF0E0234C
:100C00005A6100229A6101221A6100BF4FF0E0226E
:100C1000106900F001021AB100F48032002AF5D008
:100C200000224FF0E0231A619A61704716000020FD
:100C300018000020AA4A0A400243AA4B1A607047D3
:100C40000146072323EA01021202A64B1B1D186866
:100C50004FF6FF031840A44B18431043A14B1B1D34
:100C6000186070472DE9F0478046894614461D46B6
:100C70002046E11704EB9171C1F3870AE11704EBF9
:100C800091718910A4EB8101CFB2042000EBC70061
:100C9000C7B22846FFF7D4FFC5F1040008FA00F6F2
:100CA0000F20284100EA0900064306F00F06202C19
:100CB00009DA8E4801680120A04001434FF0E0208E
:100CC000C0F800110BE08948001D0068A4F1200164
:100CD00001228A4010434FF0E021C1F8040184480A
:100CE00050F82A0006FA07F10843814941F82A0022
:100CF000BDE8F08770B504460B46CE1701EB96763B
:100D0000C6F38700CE1701EB9676B610A1EB8606E8
:100D1000B606350E774B9B6943F00103754EB36100
:100D20004FEAB63353F820300F26AE40B343724E2D
:100D300046F82030334653F8203004FA05F61E43B7
:100D40006D4B43F820606D4B1B6801268E4033438A
:100D50006A4E336002F0010343B1684B0C331B68E9
:100D600001268E403343654E0C36336002F0020399
:100D700043B1624B08331E6801238B401E435F4B17
:100D800008331E6070BD00B500205A490861C86074
:100D90001420486100208861C8610846006840F05E
:100DA00001000860084640685549084051494860BC
:100DB00008460068534908404E49086008460068E4
:100DC00020F4802008600846406820F4FE00486057
:100DD0000020886000214FF00060FFF72BFF00BD6E
:100DE00010B540480830006840F004003D49083123
:100DF00008604048C06940F080503E49C8614248A0
:100E0000406840F48070404948600846006840F0FF
:100E1000040008600846006840F002000860FFF720
:100E2000B3F910BD3048001D2E49091D08607047F8
:100E3000014649062F4A926942F001022D4B9A6100
:100E40002D4A083A526822F0E0622B4B083B5A6068
:100E50001A4652680A435A60704730B50446002566
:100E6000FFF791FF2348006840F480302149086073
:100E700000BF20480068400C0028FAD04FF4806082
:100E80001C494860A01EC4B20846406840EA84403D
:100E900048600846406840F4803048601B4800685D
:100EA00040F03200194908601248006840F0807034
:100EB0001049086000BF0F480068400E0028FAD0B3
:100EC0000C48406840F002000A49486005E00948C3
:100ED0004068C0F3870505F00305022DF7D130BD4A
:100EE00080FFFF1F08ED00E00000FA0500E100E0D0
:100EF00000E400E00010024008000140000401404E
:100F00000000FFF8FFFFF6FE0070004000200240E6
:100F1000014600BF704700BF324A128802F040020B
:100F2000002AF9D0C2B22F4B1B1D1A8070472DE941
:100F3000F05F05460E46300101F0C2F881462A49AD
:100F400005FB01F001F0BCF88246494600F0D6FFEF
:100F50000746384601F094F884B2204601F0B0F814
:100F60008346394601F0F1F982464FF0834101F0A2
:100F7000EFF8814601F084F880464FF6FF7000EAF2
:100F8000041404EB080084B21848806940F004009F
:100F9000164988610846806940F480408861144899
:100FA000006820F47F60124908600846006840F439
:100FB0000B6008600D48C06840F480400B49C86071
:100FC0000846C06820F48040C860064808300480A5
:100FD000001D008842F20C01084302490C310880D0
:100FE000BDE8F09F0038014040420F000010024071
:100FF000040801407047704770477047704710B54C
:1010000000F008F8006810BD10B5044600F002F8C2
:10101000046010BD004870471C0000200048704765
:101020001C0000207546FFF7F9FFAE460500694633
:10103000534620F00700854618B020B5FFF7C4F9E5
:10104000BDE820404FF000064FF000074FF00008C9
:101050004FF0000B21F00701AC46ACE8C009ACE84A
:10106000C009ACE8C009ACE8C0098D46704710B5AE
:101070000446AFF300802046BDE81040FFF77DB87E
:101080002DE9F0414F1E00EBC7010446D1E90001F4
:1010900015461E4637F006020DD02A46334600F0AC
:1010A0009FFC7F1E04EBC703D3E9002300F030FA56
:1010B00037F00602F1D1022F25D0042F13D0062FCE
:1010C00018BFBDE8F0812A46334600F089FCD4E918
:1010D0000A2300F01DFA2A46334600F081FCD4E9C9
:1010E000082300F015FA2A46334600F079FCD4E9CB
:1010F000062300F00DFA2A46334600F071FCD4E9CD
:10110000042300F005FA2A46334600F069FCD4E9CE
:10111000022300F0FDF92A46334600F061FCD4E9D1
:101120000023BDE8F04100F0F3B9000000221346AF
:101130001046014900F0A8BA0000F03F012201F07A
:10114000B6B9002213461046114600F09DBA0000C1
:101150002DE9F04DC84A002490B0914205DA21F003
:101160000043934201D805D120B110B0BDE8F04D45
:10117000FFF7E4BFB1F5801F1BDA53EA000209D084
:10118000002911DA0120FFF73FFF10B0BDE8F04D54
:10119000FFF7D7BF0220FFF737FFFFF7C7FF10B0F9
:1011A00081F00041BDE8F08D6FF03504362201F08A
:1011B0007EF904EB2152C1F31308B049A2F2FF33C8
:1011C000414401F4801282F07F6103EB225281F0EE
:1011D0004051009241EA08010022A94B00F00AFDAB
:1011E000044608F10200A74EC0F313000D467E44EA
:1011F000032867D2D6E90023204600F09DFB1ED1CC
:101200000098002802BFD6E9000110B0BDE8F08DBB
:1012100000F0CEFB07460C469B4A9C4B00F0E0FBDF
:1012200006460D469A4A9B4B3846214600F0D8FBAD
:1012300010B032462B46BDE8F04D00F069B94FF0D2
:101240005532954B2046294600F0CAFB0022934BAD
:1012500000F0C4FC06460F4622462B4610461946AF
:1012600000F0BEFB32463B4600F0BAFB0646009853
:101270000F46F0B100F09CFB80468A46824A834BC1
:1012800000F0AEFB32463B4600F0A8FC22462B465F
:1012900000F0B0FC05460C467D4A7E4B4046514668
:1012A00000F09EFB10B02A462346BDE8F04D00F04A
:1012B000A1BC0B4610B0324620462946BDE8F04D91
:1012C00000F098BC00224FF08043204600F020F947
:1012D00002460B462046294600F0D6F906460F4640
:1012E000009800F065FBCDE9040132463B4610460C
:1012F000394600F075FB0C9069480C9A4044019007
:1013000009910B46104600F06BFB82460246654889
:101310008B46C8F151080B4608F5D72803217844BD
:10132000FFF7AEFE52465B4600F05AFB0A905E485D
:101330000D9152465B4604217844FFF7A1FE099BBC
:101340000C9A00F04DFB844601980D9B40EA08087A
:1013500060460A9A00F0DCF883460891B8F1000F65
:101360004EDD4FF0FF322046294601F0A0F822461C
:101370002B4600F035FB804600988A4660B3DDE9D5
:101380000401414A414B00F02BFB099100905A4661
:1013900040465146089B00F0BBF832463B4600F001
:1013A0001FFB099B009A00F0B3F84246534600F039
:1013B00015FC22462B4600F01DFC04460D46DDE9D7
:1013C0000401334A334B00F00BFB10B022462B468E
:1013D000BDE8F04D00F00EBC5A464046089B00F0B8
:1013E00097F832463B4600F0FBFA4246534600F07F
:1013F000F5FB10B022462B46BDE8F04D00F0EEBBE9
:10140000009840B3DDE904011F4A204B00F0E8FAE0
:1014100080468A465A4620462946089B00F0EAFB49
:1014200032463B4600F0DCFA4246534600F0E2FB0F
:1014300022462B4600F0DEFB04460D46DDE90401A2
:10144000134A144B00F0CCFA10B022462B46BDE8EC
:10145000F04D00F0CFBB0B465A462046294600F01F
:10146000C9FB32463B4600F0BBFA10B022462B4681
:10147000BDE8F04D00F0B2BB0000F07F645F0900F2
:101480000000F03F86130000763C7935EF39EA3DE5
:101490000000E0FE422EE63F5555D53F0000E03FFC
:1014A00086EBF9FF1E1200001C12000021F0004222
:1014B000A2F16052B2F5801F01F0004328BFD2F1C3
:1014C0007F6C0BD95FEA001C43EAC20242EB50700A
:1014D00018BF704728BF20F001007047B2F5801F89
:1014E000BCBF184670474FEA410C1CF5001F02D2E2
:1014F000084600F0F4BE70B500F01CFB0000008947
:10150000FFF7F6BF4FF00040A0F5800070470000E5
:1015100010B591EA030F48BF83F0004300F17283D6
:10152000841A71EB030C05D2121943EB0C03001B58
:1015300061EB0C01DFF824E14FEA1154A4EB135CDA
:101540001EEA430F18BF9EEA445F73D023EA0E03DE
:10155000DCF1200E21EA045143F4801332D322FA45
:101560000CFE10EB0E0023FA0CFE41EB0E01CCF149
:10157000200E03FA0EFE10EB0E0051F10001B1F542
:10158000801FCCF1200E32D201EB045112FA0EF280
:10159000BDE8104058BF7047401C38BF5FEA4202A8
:1015A00018BF7047002814BF20F0010041F100016E
:1015B0004FEA410313F5001F38BF7047A1F1C04146
:1015C00000F006BB012A43EB0302ACF1200CDCF176
:1015D0001F0E32BF4FF0000E23FA0CF310EB030086
:1015E00041EB0451B4EB115FD0D0A1EB045101F5F4
:1015F000801149085FEA300001EB04510ED350F12D
:10160000000038BF12FA0EFE08D1BDE81040C9E74D
:10161000401C38BF5FEA4202CAD1C3E7BDE81040B0
:101620004FEA410313F5001F38BF7047A1F1C041D5
:1016300000F0CEBA9EEA445F08D011EA5E0FBDE822
:10164000104004BF01F0004100207047BDE8104089
:1016500070B500F06FFA00BF64FBBE3E0000E0FF13
:1016600002494FF0000000F0F0BE00BF0000F87F1C
:10167000491058BFC1F140415B1058BFC3F140430E
:101680008B42EFF3008070472DE9C04130B4DFF8A2
:10169000A0C23CEA111418BF3CEA131400F0EC801D
:1016A00081EA03051CEA111444EAD57418BF1CEA48
:1016B000131500F0C780A4EB05044FF0004545EA80
:1016C000C12145EAC32341EA505143EA525304F190
:1016D0007F74994204F500344FEAC0204FEAC222D9
:1016E00008BF904200F09C804FEA13650FF240164D
:1016F000765D4FEA134506FB05F7C7F1807706FBD9
:1017000007F74FEAD737A7FB03687642C8F580385A
:10171000A7FB06CE38BFA8F1010807FB08E64FF08B
:10172000000EA6FB028CE6FB03CEDCF1000CCEF132
:10173000004E38BFAEF1010EA6FB0C584FF000076B
:101740004FF00005E6FB0E87A1FB08C6A0FB07CE05
:1017500016EB0E0645F10005E1FB076515F1E04EBD
:101760007EBFA4F580345FEA46066D4116F180071E
:1017700045F100054FEA17274FEA066647EA056775
:10178000A6F1DE46B6F1805F4FEA15251FD938462F
:1017900024F0010C05EBC471BCF1FE6F01EB0C11E0
:1017A00002D8F0BCBDE8008124425CBF01F5801E78
:1017B0009EEAC47F02D4F0BCBDE80081244238D444
:1017C000F0BCA1F1C041BDE8004100F001BA4FEA10
:1017D000D22242EA43524FEAD323A7FB02864FEAC2
:1017E000D02040EA415007FB03661EEA0E0F4FEA85
:1017F000D12105FB026658BFA6EB0056B6EB00569A
:101800004FEA520E4EEAC37E18EB0E0E56EB530E05
:10181000BDD518EB02085E417F1C55F10005B6E707
:101820004FF480154FF000074FF000064FF000080E
:10183000ADE7F0BC4FF0000001F1C04101F0004104
:10184000BDE8008111EA0C1F0CEA131500D00CE072
:1018500013EA0C1F00F025804FF00000F0BC81EA75
:10186000030101F00041BDE80081F0BCBDE800418A
:1018700081EA030100F0ACB9F0BCBDE8004170B5ED
:1018800000F058F9097EFC3E00F007B881EA030138
:101890004FF0000001F00041704781EA030100F0C1
:1018A00097B9F0BCBDE800414FF0000021497047F6
:1018B000FFFDFBF9F7F5F4F2F0EEEDEBE9E8E6E415
:1018C000E3E1E0DEDDDBDAD8D7D5D4D3D1D0CFCD9C
:1018D000CCCBCAC8C7C6C5C4C2C1C0BFBEBDBCBBD5
:1018E000BAB9B8B7B6B5B4B3B2B1B0AFAEADACABD0
:1018F000AAA9A8A8A7A6A5A4A3A3A2A1A09F9F9EAA
:101900009D9C9C9B9A99999897979695959493935B
:10191000929191908F8F8E8E8D8C8C8B8B8A8989F2
:101920008888878786858584848383828281818075
:101930000000FF070000F87F51EA030C17D41CF5E4
:10194000801F58BFBCF5801F00F10680994218BF68
:10195000704708BF9042704707D711F5801F58BFE6
:1019600013F5801F19D499427047894270471CF5BE
:10197000801F08D5BCF5801FF7D58B4218BF704774
:1019800008BF824270474FF4001C1CEB410F38BF68
:101990001CEB430F01D28B42704770B500F0CAF8C0
:1019A000922449004FF000514FF08053FFF760BE82
:1019B00010F0004248BF4042B0FA80F310FA03F141
:1019C0000AD0C3F11D0303F580634FEA415002EBD7
:1019D000035202EBD12170474FF000007047000026
:1019E000DFF848C170B51CEA111E1EBF1CEA1315B2
:1019F0009EEA0C0F95EA0C0F00F06F8081EA030459
:101A000023EA4C134EEAD47E21EA4C1141F48011B2
:101A100043F48013AE44A1FB024CA0FB0365AEF17E
:101A20007F7E361955EB0C05A1FB034C4CF10003EE
:101A3000A0FB021C16EB0C06654153F100030942A2
:101A400018BF46F0010613F4007F0BD14FEA0331B3
:101A50004FEA0530340341EA155140EA16506FF061
:101A600003020AE04FEAC3214FEAC520F40241EA2B
:101A7000555140EA56506FF0020202EB2E4201EB44
:101A8000025585EACE710AD05FEA440C18BF24F0F3
:101A9000004450F1000041F1000120EAD47040F20E
:101AA000FE7C624500D270BDA84214BF4FF0804456
:101AB0004FF04044002E08BF0024BEF1806FA8BF45
:101AC000A1F1C041BDE8704080F282804FF000007B
:101AD00001F1C04101F0004170479EEA0C0F0CEA91
:101AE000131518BF95EA0C0F06D04FF0000081EADD
:101AF000030E0EF0004170BD00F01CF88900013E9D
:101B000000F007B800F009B84FEA430C5FEA5C5CEC
:101B100008D081EA030100F05BB84FEA410C5FEAAC
:101B20005C5CF6D14FF00000014970470000FF07F0
:101B30000000F87F0EF1020E2EF0030E5EF8046B2B
:101B4000364205D4012A43EB030515F5001F12D8D0
:101B5000012841EB010C1CF5001F0CD80ED14FEAF7
:101B6000D17C15F5001F0CEB4C0C0CF1020C08BFDE
:101B70004CEBD37C04E04FF0080C01E04FEAD37C3F
:101B80000CEB4C0526FA05F606F00706B6F1040C38
:101B900006D20EEB860CBDE870404CF0010C60479D
:101BA000DFE80CF0090B02024FF000414FF000009B
:101BB000A1F5002170BD19461046012851EB010422
:101BC00018BFD4F5001484BF002001F0004170BD9F
:101BD0000808A0F500114FEA3101704791EA030FA0
:101BE00010B581F000413FF59BAC83F0004300F05D
:101BF00009B8000010B591EA030F48BF83F0004315
:101C00003FF58EAC841A71EB030C07D212198CF0DD
:101C1000004C43EB0C03001B61EB0C01DFF8A4E16B
:101C20004FEA1154A4EB135C1EEA430F18BF9EEA5F
:101C3000445F00F0B08023EA6E03524221EA04516F
:101C4000C3EB6E0338BF5B1EDCF1200E25D322FAF6
:101C50000CFE10EB0E0043FA0CFE41EB0E01CCF132
:101C6000200E03FA0EFE10EB0E0051F10001CCF134
:101C7000200E29D412FA0EF201EB0451BDE81040F7
:101C800058BF7047401C1CBFB2F1004F704700287E
:101C90000CBF491C20F00100704712EB020E43EB11
:101CA000030218BF4FF0010E4EEA4202ACF1200CC5
:101CB000DCF11E0E54D943FA0CFE10EB0E0051F16C
:101CC000FF31CCF11E0ED5D50EF1010E12FA0EFE2B
:101CD000404141EB010101EB445C5FEA5C5C10D9DF
:101CE00010EBDE7001EB045138BFBEF1004FBDE8D0
:101CF000104018BF704700280CBF491C20F001009D
:101D0000704730D24FEAD42C11F5001124F400644E
:101D10001BD0B1FA81F20B3AA41AA41ED2F120030F
:101D2000914030FA03F31943904001EBCC71002C41
:101D300001EB0451BDE81040A8BF704701F1C0415C
:101D40004FF0000001F000417047B0FA80F310FA44
:101D500003F100D110BDE41A173C4805C90AE4E7B5
:101D600001EB045110BD491001EB0451BDE81040D6
:101D70004FEA300002E04FF0000170474A0008BF10
:101D80000042F8D0B2F5001F28BF704701F00041B3
:101D90004FF0000070479EEA445F07D011EA5E0FE3
:101DA000BDE8104004BF002100207047BDE810408E
:101DB00070B5FFF7BFFE00BF40DFF63E83F0004185
:101DC000104670470000E0FF43004FEAD30C4FEA93
:101DD0003C0C43401FBF40070CF1605113F0FE4F15
:101DE00070471CF0006F03D100200CF000417047D9
:101DF0000CF0004343EA507010B540EACC0000F00C
:101E000028FA00BF000000924FEA0001FFF7E0BE91
:101E10004FF000414FF00000A1F500217047000095
:101E200090EA010F48BF81F0004100F1A082421A00
:101E30003CBF801A89184FEAD0524FF07F4C1CEA01
:101E4000410FA2EBD15318BF9CEA026F00F03B8018
:101E50004FF0004C4CEA00204CEA012121FA03FC2F
:101E600010EB0C0C1ED202F1FF325FEA1C2040EB9B
:101E7000C25038BF70471CF07F0F4FEA400C18BFAC
:101E8000BCF17F4F38BF7047C3F12003994008BFB2
:101E900020F00100BCF17F4F38BF7047A0F1C04077
:101EA00000F01DBA4FEA3C00000A40EBC25028BFC8
:101EB0001CF0FF0F4FEA400CE6D018BFBCF17F4F7B
:101EC00038BF7047EAE79CEA026F05D010EA5C0F62
:101ED00008BF00F00040704710B500F0BAF900BF2D
:101EE00064FBBE3E401058BFC0F14040491058BF8F
:101EF000C1F140418142EFF3008070474FF47F0C05
:101F00001CEAD0121EBF1CEAD11392EA0C0F93EA0E
:101F10000C0F00F0858090EA010F48BF42F48072F8
:101F200040F4000C41F400002CF07F4120F07F4091
:101F300000B58142A2EB03020FF2081CACEB504E3D
:101F4000C0F100009EF800E04FEA4E0E00FB0EFCD0
:101F500038BF49004FEA2C1C02F5FA020CFB0EF3C5
:101F60004FEACE1E4FEA112C4FEAC1210EEB635E01
:101F700042EB22420EFB0CFC4FEA1C5300FB031108
:101F80004FEA112C4FEA01310EFB0CFC4FEADC4CFE
:101F900000FB0C11C14228BF09184CEB03335DF85C
:101FA00004EB10EB410143EBC250B2F57C0F38BF9C
:101FB000704729D512F0F00F1CBF00F1C04000F0AF
:101FC00000407047008182838485868788898B8C56
:101FD0008D8E8F919293959697999A9C9D9FA0A292
:101FE000A3A5A7A8AAACAEB0B2B3B5B7B9BCBEC0E2
:101FF000C2C5C7C9CCCED1D4D7D9DCDFE2E6E9EC83
:10200000F0F3F7FAFE0000004FEA400C0CF1807C80
:10201000BCF17E4F28BF7047B0F1C04000F05FB9FF
:1020200090EA010F0CEAD11348BF42F48072624576
:1020300038BF634507D213F47F0F16D080EA010042
:1020400000F00040704710B500F003F9097EFC3E37
:1020500000F005B880EA010000F00040704780EA17
:10206000010000F0004000F03AB912F47F0F04BF05
:102070000248704780EA010000F031B90000C07FDB
:10208000C10DD1F19E0206DB4FEA002343F000436D
:1020900023FA02F07047004207D54FEA4001B1F140
:1020A000FE4F02D24FF00000704710B500F0D1F89B
:1020B00049922480002070476FEA2000704700009A
:1020C000B0FA80F310FA03F2C3F19D030AD0D905E8
:1020D00001EB1220530638BF704700F1010008BF22
:1020E00020F001007047000050EA010C00F113805D
:1020F0001CF5000F58BFBCF5000F01D48842704793
:1021000007D710F5000F58BF11F5000F15D48842FE
:102110007047894270471CF5000F04D5BCF5000FCD
:10212000F7D5814270474FF0807C1CEB400F38BFE1
:102130001CEB410F01D28142704710B500F089F8C5
:10214000922449004FF000504FF08051FFF7CABE73
:102150004FF47F0C1CEAD0121EBF1CEAD11392EA86
:102160000C0F93EA0C0F00F0478090EA010F48BF74
:1021700042F480724FF0004C4CEA00204CEA0121FE
:1021800002EB0302A0FB0113A2F50002002918BF15
:1021900043F001035B0028BF4FEA330342EB2242C6
:1021A0005FEA132C4CEBC2502EBFBCEB436FB2F571
:1021B0007C0F70474FEA036CBCF1004F08BF20F062
:1021C0000100B2F57C0F38BF70470BD582F0FF02DB
:1021D00012F5803FC8BF704700F1C040D8BF00F083
:1021E0000040704700F5000C5FEA4C0C48BF704798
:1021F000B0F1C04000F073B890EA010F0CEAD113BF
:1022000048BF42F48072624538BF634504D280EA19
:10221000010000F00040704710B500F01AF800BF50
:102220008900013E00F007B800F009B85FEA410CF0
:102230005FEA1C6C08D080EA010000F050B85FEA49
:10224000400C5FEA1C6CF6D14FF00040A0F5800016
:1022500070470EF1020E2EF0030E5EF8044B24427E
:1022600004D44FEA4102B2F17F4F11D84FEA400344
:10227000B3F17F4F0CD80ED14FEAD07CB2F17F4F33
:102280000CEB4C0C0CF1020C08BF4CEBD17C04E0C5
:102290004FF0080C01E04FEAD17C0CEB4C0324FA20
:1022A00003F404F00704B4F1040C06D20EEB840C22
:1022B000BDE810404CF0010C6047DFE80CF0070867
:1022C00002024FF00040A0F5800010BD0846420019
:1022D00018BFD2F1807288BF00F0004010BDFF210E
:1022E00041EAD050C005704751EA000C00F113805C
:1022F0001CF5000F58BFBCF5000F01D48142704798
:1023000007D711F5000F58BF10F5000F15D4814203
:102310007047894270471CF5000F04D5BCF5000FCB
:10232000F7D5884270474FF0807C1CEB410F38BFD7
:102330001CEB400F01D28842704780EA010081EA1D
:10234000000180EA0100FFF7F8BE80F0004090EA4B
:10235000010F7FF56CAD81F0004100F008B800007E
:1023600090EA010F48BF81F000413FF560AD421A8D
:1023700004D882F00042A0EB020011444FEAD05290
:102380004FF07F4C1CEA410FA2EBD15318BF9CEADF
:10239000026F4AD04FF0004C4CEA00204CEA012179
:1023A00021FA03FCB0EB0C0C0FD412F0FE0F36D068
:1023B0005FEA4C001DD5001240EBC25038BF704799
:1023C0001CF03F0F18BF70470BE0A2F101025FEA5B
:1023D0001C2040EBC25038BF70471CF07F0F18BF65
:1023E0007047C3F12003994014BF401E20F0010044
:1023F000704780084FEA122308BF7047B0FA80FC8C
:10240000A2EB0C02CCF1280C60FA0CF093EA122F2C
:1024100004BF00EBC25070474FEAC3707047130A05
:102420005FEADC1008BF7047F6E79CEA026F04D051
:1024300010EA5C0F08BF0020704710B5FFF709FFD6
:1024400040DFF63E81F0004070470CF00F03092B8F
:1024500008BF082000F059800A2B0BD0082B18BFAA
:10246000704708BF1CF0400F0AD04FF000004FF03B
:10247000000170471CF0400F18BF4FF0004070473C
:102480001CF0100F08D020F0704300F07F4242EAA9
:10249000D3014FEA4370704700F0604021F07F4263
:1024A00042EA000201F07F4040EA727070474FF04C
:1024B000FF0C4CF4E06C1CEA11531CBF9CEA030CAB
:1024C0009445C2BFDA4201EB02517047002B0DD098
:1024D000BCF1000F0FD0002A01F00041A4BF41F071
:1024E000E04141F07F614FF00000704701F0004192
:1024F0004FF00000704750EA01334FF09B0C18BFBB
:102500004CF0806C7FF4ACA870471CF4801F11D095
:102510001CF4E02F03D06FEACC31490070474FF034
:102520004050EFF3008222F0704242EA000282F350
:10253000008870474FF00000704700000000000066
:1025400004FA97999999D93FAF788E1DC571CC3F00
:102550009FC678D0099AC33F935555555555E53FC9
:10256000599322942449D23FDE03CB966446C73F59
:1025700044523EDF12F1C23F0000000000000000A4
:10258000A0250008000000201C0000002801000811
:10259000BC2500081C000020640200004401000863
:1025A0003F065B4F666D7D077F6F79BF86DBCFE6A9
:0C25B000EDFD87FFEF00000000000000C0
:04000005080000ED02
:00000001FF
